{
  "_format": "hh-sol-artifact-1",
  "contractName": "EntryPoint",
  "sourceName": "contracts/core/EntryPoint.sol",
  "abi": [
    {
      "inputs": [
        {
          "internalType": "uint256",
          "name": "preOpGas",
          "type": "uint256"
        },
        {
          "internalType": "uint256",
          "name": "paid",
          "type": "uint256"
        },
        {
          "internalType": "uint64",
          "name": "validAfter",
          "type": "uint64"
        },
        {
          "internalType": "uint64",
          "name": "validBefore",
          "type": "uint64"
        }
      ],
      "name": "ExecutionResult",
      "type": "error"
    },
    {
      "inputs": [
        {
          "internalType": "uint256",
          "name": "opIndex",
          "type": "uint256"
        },
        {
          "internalType": "address",
          "name": "paymaster",
          "type": "address"
        },
        {
          "internalType": "string",
          "name": "reason",
          "type": "string"
        }
      ],
      "name": "FailedOp",
      "type": "error"
    },
    {
      "inputs": [
        {
          "internalType": "address",
          "name": "sender",
          "type": "address"
        }
      ],
      "name": "SenderAddressResult",
      "type": "error"
    },
    {
      "inputs": [
        {
          "internalType": "address",
          "name": "aggregator",
          "type": "address"
        }
      ],
      "name": "SignatureValidationFailed",
      "type": "error"
    },
    {
      "inputs": [
        {
          "components": [
            {
              "internalType": "uint256",
              "name": "preOpGas",
              "type": "uint256"
            },
            {
              "internalType": "uint256",
              "name": "prefund",
              "type": "uint256"
            },
            {
              "internalType": "bool",
              "name": "sigFailed",
              "type": "bool"
            },
            {
              "internalType": "uint64",
              "name": "validAfter",
              "type": "uint64"
            },
            {
              "internalType": "uint64",
              "name": "validUntil",
              "type": "uint64"
            },
            {
              "internalType": "bytes",
              "name": "paymasterContext",
              "type": "bytes"
            }
          ],
          "internalType": "struct IEntryPoint.ReturnInfo",
          "name": "returnInfo",
          "type": "tuple"
        },
        {
          "components": [
            {
              "internalType": "uint256",
              "name": "stake",
              "type": "uint256"
            },
            {
              "internalType": "uint256",
              "name": "unstakeDelaySec",
              "type": "uint256"
            }
          ],
          "internalType": "struct IStakeManager.StakeInfo",
          "name": "senderInfo",
          "type": "tuple"
        },
        {
          "components": [
            {
              "internalType": "uint256",
              "name": "stake",
              "type": "uint256"
            },
            {
              "internalType": "uint256",
              "name": "unstakeDelaySec",
              "type": "uint256"
            }
          ],
          "internalType": "struct IStakeManager.StakeInfo",
          "name": "factoryInfo",
          "type": "tuple"
        },
        {
          "components": [
            {
              "internalType": "uint256",
              "name": "stake",
              "type": "uint256"
            },
            {
              "internalType": "uint256",
              "name": "unstakeDelaySec",
              "type": "uint256"
            }
          ],
          "internalType": "struct IStakeManager.StakeInfo",
          "name": "paymasterInfo",
          "type": "tuple"
        }
      ],
      "name": "ValidationResult",
      "type": "error"
    },
    {
      "inputs": [
        {
          "components": [
            {
              "internalType": "uint256",
              "name": "preOpGas",
              "type": "uint256"
            },
            {
              "internalType": "uint256",
              "name": "prefund",
              "type": "uint256"
            },
            {
              "internalType": "bool",
              "name": "sigFailed",
              "type": "bool"
            },
            {
              "internalType": "uint64",
              "name": "validAfter",
              "type": "uint64"
            },
            {
              "internalType": "uint64",
              "name": "validUntil",
              "type": "uint64"
            },
            {
              "internalType": "bytes",
              "name": "paymasterContext",
              "type": "bytes"
            }
          ],
          "internalType": "struct IEntryPoint.ReturnInfo",
          "name": "returnInfo",
          "type": "tuple"
        },
        {
          "components": [
            {
              "internalType": "uint256",
              "name": "stake",
              "type": "uint256"
            },
            {
              "internalType": "uint256",
              "name": "unstakeDelaySec",
              "type": "uint256"
            }
          ],
          "internalType": "struct IStakeManager.StakeInfo",
          "name": "senderInfo",
          "type": "tuple"
        },
        {
          "components": [
            {
              "internalType": "uint256",
              "name": "stake",
              "type": "uint256"
            },
            {
              "internalType": "uint256",
              "name": "unstakeDelaySec",
              "type": "uint256"
            }
          ],
          "internalType": "struct IStakeManager.StakeInfo",
          "name": "factoryInfo",
          "type": "tuple"
        },
        {
          "components": [
            {
              "internalType": "uint256",
              "name": "stake",
              "type": "uint256"
            },
            {
              "internalType": "uint256",
              "name": "unstakeDelaySec",
              "type": "uint256"
            }
          ],
          "internalType": "struct IStakeManager.StakeInfo",
          "name": "paymasterInfo",
          "type": "tuple"
        },
        {
          "components": [
            {
              "internalType": "address",
              "name": "actualAggregator",
              "type": "address"
            },
            {
              "components": [
                {
                  "internalType": "uint256",
                  "name": "stake",
                  "type": "uint256"
                },
                {
                  "internalType": "uint256",
                  "name": "unstakeDelaySec",
                  "type": "uint256"
                }
              ],
              "internalType": "struct IStakeManager.StakeInfo",
              "name": "stakeInfo",
              "type": "tuple"
            }
          ],
          "internalType": "struct IEntryPoint.AggregatorStakeInfo",
          "name": "aggregatorInfo",
          "type": "tuple"
        }
      ],
      "name": "ValidationResultWithAggregation",
      "type": "error"
    },
    {
      "anonymous": false,
      "inputs": [
        {
          "indexed": true,
          "internalType": "bytes32",
          "name": "userOpHash",
          "type": "bytes32"
        },
        {
          "indexed": true,
          "internalType": "address",
          "name": "sender",
          "type": "address"
        },
        {
          "indexed": false,
          "internalType": "address",
          "name": "factory",
          "type": "address"
        },
        {
          "indexed": false,
          "internalType": "address",
          "name": "paymaster",
          "type": "address"
        }
      ],
      "name": "AccountDeployed",
      "type": "event"
    },
    {
      "anonymous": false,
      "inputs": [
        {
          "indexed": true,
          "internalType": "address",
          "name": "account",
          "type": "address"
        },
        {
          "indexed": false,
          "internalType": "uint256",
          "name": "totalDeposit",
          "type": "uint256"
        }
      ],
      "name": "Deposited",
      "type": "event"
    },
    {
      "anonymous": false,
      "inputs": [
        {
          "indexed": false,
          "internalType": "address",
          "name": "aggregator",
          "type": "address"
        }
      ],
      "name": "SignatureAggregatorChanged",
      "type": "event"
    },
    {
      "anonymous": false,
      "inputs": [
        {
          "indexed": true,
          "internalType": "address",
          "name": "account",
          "type": "address"
        },
        {
          "indexed": false,
          "internalType": "uint256",
          "name": "totalStaked",
          "type": "uint256"
        },
        {
          "indexed": false,
          "internalType": "uint256",
          "name": "withdrawTime",
          "type": "uint256"
        }
      ],
      "name": "StakeLocked",
      "type": "event"
    },
    {
      "anonymous": false,
      "inputs": [
        {
          "indexed": true,
          "internalType": "address",
          "name": "account",
          "type": "address"
        },
        {
          "indexed": false,
          "internalType": "uint256",
          "name": "withdrawTime",
          "type": "uint256"
        }
      ],
      "name": "StakeUnlocked",
      "type": "event"
    },
    {
      "anonymous": false,
      "inputs": [
        {
          "indexed": true,
          "internalType": "address",
          "name": "account",
          "type": "address"
        },
        {
          "indexed": false,
          "internalType": "address",
          "name": "withdrawAddress",
          "type": "address"
        },
        {
          "indexed": false,
          "internalType": "uint256",
          "name": "amount",
          "type": "uint256"
        }
      ],
      "name": "StakeWithdrawn",
      "type": "event"
    },
    {
      "anonymous": false,
      "inputs": [
        {
          "indexed": true,
          "internalType": "bytes32",
          "name": "userOpHash",
          "type": "bytes32"
        },
        {
          "indexed": true,
          "internalType": "address",
          "name": "sender",
          "type": "address"
        },
        {
          "indexed": true,
          "internalType": "address",
          "name": "paymaster",
          "type": "address"
        },
        {
          "indexed": false,
          "internalType": "uint256",
          "name": "nonce",
          "type": "uint256"
        },
        {
          "indexed": false,
          "internalType": "bool",
          "name": "success",
          "type": "bool"
        },
        {
          "indexed": false,
          "internalType": "uint256",
          "name": "actualGasCost",
          "type": "uint256"
        },
        {
          "indexed": false,
          "internalType": "uint256",
          "name": "actualGasUsed",
          "type": "uint256"
        }
      ],
      "name": "UserOperationEvent",
      "type": "event"
    },
    {
      "anonymous": false,
      "inputs": [
        {
          "indexed": true,
          "internalType": "bytes32",
          "name": "userOpHash",
          "type": "bytes32"
        },
        {
          "indexed": true,
          "internalType": "address",
          "name": "sender",
          "type": "address"
        },
        {
          "indexed": false,
          "internalType": "uint256",
          "name": "nonce",
          "type": "uint256"
        },
        {
          "indexed": false,
          "internalType": "bytes",
          "name": "revertReason",
          "type": "bytes"
        }
      ],
      "name": "UserOperationRevertReason",
      "type": "event"
    },
    {
      "anonymous": false,
      "inputs": [
        {
          "indexed": true,
          "internalType": "address",
          "name": "account",
          "type": "address"
        },
        {
          "indexed": false,
          "internalType": "address",
          "name": "withdrawAddress",
          "type": "address"
        },
        {
          "indexed": false,
          "internalType": "uint256",
          "name": "amount",
          "type": "uint256"
        }
      ],
      "name": "Withdrawn",
      "type": "event"
    },
    {
      "inputs": [],
      "name": "SIG_VALIDATION_FAILED",
      "outputs": [
        {
          "internalType": "uint256",
          "name": "",
          "type": "uint256"
        }
      ],
      "stateMutability": "view",
      "type": "function"
    },
    {
      "inputs": [
        {
          "internalType": "address",
          "name": "sender",
          "type": "address"
        },
        {
          "internalType": "address",
          "name": "paymaster",
          "type": "address"
        }
      ],
      "name": "_simulateFindAggregator",
      "outputs": [],
      "stateMutability": "view",
      "type": "function"
    },
    {
      "inputs": [
        {
          "internalType": "uint32",
          "name": "_unstakeDelaySec",
          "type": "uint32"
        }
      ],
      "name": "addStake",
      "outputs": [],
      "stateMutability": "payable",
      "type": "function"
    },
    {
      "inputs": [
        {
          "internalType": "address",
          "name": "account",
          "type": "address"
        }
      ],
      "name": "balanceOf",
      "outputs": [
        {
          "internalType": "uint256",
          "name": "",
          "type": "uint256"
        }
      ],
      "stateMutability": "view",
      "type": "function"
    },
    {
      "inputs": [
        {
          "internalType": "address",
          "name": "account",
          "type": "address"
        }
      ],
      "name": "depositTo",
      "outputs": [],
      "stateMutability": "payable",
      "type": "function"
    },
    {
      "inputs": [
        {
          "internalType": "address",
          "name": "",
          "type": "address"
        }
      ],
      "name": "deposits",
      "outputs": [
        {
          "internalType": "uint112",
          "name": "deposit",
          "type": "uint112"
        },
        {
          "internalType": "bool",
          "name": "staked",
          "type": "bool"
        },
        {
          "internalType": "uint112",
          "name": "stake",
          "type": "uint112"
        },
        {
          "internalType": "uint32",
          "name": "unstakeDelaySec",
          "type": "uint32"
        },
        {
          "internalType": "uint64",
          "name": "withdrawTime",
          "type": "uint64"
        }
      ],
      "stateMutability": "view",
      "type": "function"
    },
    {
      "inputs": [
        {
          "internalType": "address",
          "name": "account",
          "type": "address"
        }
      ],
      "name": "getDepositInfo",
      "outputs": [
        {
          "components": [
            {
              "internalType": "uint112",
              "name": "deposit",
              "type": "uint112"
            },
            {
              "internalType": "bool",
              "name": "staked",
              "type": "bool"
            },
            {
              "internalType": "uint112",
              "name": "stake",
              "type": "uint112"
            },
            {
              "internalType": "uint32",
              "name": "unstakeDelaySec",
              "type": "uint32"
            },
            {
              "internalType": "uint64",
              "name": "withdrawTime",
              "type": "uint64"
            }
          ],
          "internalType": "struct IStakeManager.DepositInfo",
          "name": "info",
          "type": "tuple"
        }
      ],
      "stateMutability": "view",
      "type": "function"
    },
    {
      "inputs": [
        {
          "internalType": "bytes",
          "name": "initCode",
          "type": "bytes"
        }
      ],
      "name": "getSenderAddress",
      "outputs": [],
      "stateMutability": "nonpayable",
      "type": "function"
    },
    {
      "inputs": [
        {
          "components": [
            {
              "internalType": "address",
              "name": "sender",
              "type": "address"
            },
            {
              "internalType": "uint256",
              "name": "nonce",
              "type": "uint256"
            },
            {
              "internalType": "bytes",
              "name": "initCode",
              "type": "bytes"
            },
            {
              "internalType": "bytes",
              "name": "callData",
              "type": "bytes"
            },
            {
              "internalType": "uint256",
              "name": "callGasLimit",
              "type": "uint256"
            },
            {
              "internalType": "uint256",
              "name": "verificationGasLimit",
              "type": "uint256"
            },
            {
              "internalType": "uint256",
              "name": "preVerificationGas",
              "type": "uint256"
            },
            {
              "internalType": "uint256",
              "name": "maxFeePerGas",
              "type": "uint256"
            },
            {
              "internalType": "uint256",
              "name": "maxPriorityFeePerGas",
              "type": "uint256"
            },
            {
              "internalType": "bytes",
              "name": "paymasterAndData",
              "type": "bytes"
            },
            {
              "internalType": "bytes",
              "name": "signature",
              "type": "bytes"
            }
          ],
          "internalType": "struct UserOperation",
          "name": "userOp",
          "type": "tuple"
        }
      ],
      "name": "getUserOpHash",
      "outputs": [
        {
          "internalType": "bytes32",
          "name": "",
          "type": "bytes32"
        }
      ],
      "stateMutability": "view",
      "type": "function"
    },
    {
      "inputs": [
        {
          "components": [
            {
              "components": [
                {
                  "internalType": "address",
                  "name": "sender",
                  "type": "address"
                },
                {
                  "internalType": "uint256",
                  "name": "nonce",
                  "type": "uint256"
                },
                {
                  "internalType": "bytes",
                  "name": "initCode",
                  "type": "bytes"
                },
                {
                  "internalType": "bytes",
                  "name": "callData",
                  "type": "bytes"
                },
                {
                  "internalType": "uint256",
                  "name": "callGasLimit",
                  "type": "uint256"
                },
                {
                  "internalType": "uint256",
                  "name": "verificationGasLimit",
                  "type": "uint256"
                },
                {
                  "internalType": "uint256",
                  "name": "preVerificationGas",
                  "type": "uint256"
                },
                {
                  "internalType": "uint256",
                  "name": "maxFeePerGas",
                  "type": "uint256"
                },
                {
                  "internalType": "uint256",
                  "name": "maxPriorityFeePerGas",
                  "type": "uint256"
                },
                {
                  "internalType": "bytes",
                  "name": "paymasterAndData",
                  "type": "bytes"
                },
                {
                  "internalType": "bytes",
                  "name": "signature",
                  "type": "bytes"
                }
              ],
              "internalType": "struct UserOperation[]",
              "name": "userOps",
              "type": "tuple[]"
            },
            {
              "internalType": "contract IAggregator",
              "name": "aggregator",
              "type": "address"
            },
            {
              "internalType": "bytes",
              "name": "signature",
              "type": "bytes"
            }
          ],
          "internalType": "struct IEntryPoint.UserOpsPerAggregator[]",
          "name": "opsPerAggregator",
          "type": "tuple[]"
        },
        {
          "internalType": "address payable",
          "name": "beneficiary",
          "type": "address"
        }
      ],
      "name": "handleAggregatedOps",
      "outputs": [],
      "stateMutability": "nonpayable",
      "type": "function"
    },
    {
      "inputs": [
        {
          "components": [
            {
              "internalType": "address",
              "name": "sender",
              "type": "address"
            },
            {
              "internalType": "uint256",
              "name": "nonce",
              "type": "uint256"
            },
            {
              "internalType": "bytes",
              "name": "initCode",
              "type": "bytes"
            },
            {
              "internalType": "bytes",
              "name": "callData",
              "type": "bytes"
            },
            {
              "internalType": "uint256",
              "name": "callGasLimit",
              "type": "uint256"
            },
            {
              "internalType": "uint256",
              "name": "verificationGasLimit",
              "type": "uint256"
            },
            {
              "internalType": "uint256",
              "name": "preVerificationGas",
              "type": "uint256"
            },
            {
              "internalType": "uint256",
              "name": "maxFeePerGas",
              "type": "uint256"
            },
            {
              "internalType": "uint256",
              "name": "maxPriorityFeePerGas",
              "type": "uint256"
            },
            {
              "internalType": "bytes",
              "name": "paymasterAndData",
              "type": "bytes"
            },
            {
              "internalType": "bytes",
              "name": "signature",
              "type": "bytes"
            }
          ],
          "internalType": "struct UserOperation[]",
          "name": "ops",
          "type": "tuple[]"
        },
        {
          "internalType": "address payable",
          "name": "beneficiary",
          "type": "address"
        }
      ],
      "name": "handleOps",
      "outputs": [],
      "stateMutability": "nonpayable",
      "type": "function"
    },
    {
      "inputs": [
        {
          "internalType": "bytes",
          "name": "callData",
          "type": "bytes"
        },
        {
          "components": [
            {
              "components": [
                {
                  "internalType": "address",
                  "name": "sender",
                  "type": "address"
                },
                {
                  "internalType": "uint256",
                  "name": "nonce",
                  "type": "uint256"
                },
                {
                  "internalType": "uint256",
                  "name": "callGasLimit",
                  "type": "uint256"
                },
                {
                  "internalType": "uint256",
                  "name": "verificationGasLimit",
                  "type": "uint256"
                },
                {
                  "internalType": "uint256",
                  "name": "preVerificationGas",
                  "type": "uint256"
                },
                {
                  "internalType": "address",
                  "name": "paymaster",
                  "type": "address"
                },
                {
                  "internalType": "uint256",
                  "name": "maxFeePerGas",
                  "type": "uint256"
                },
                {
                  "internalType": "uint256",
                  "name": "maxPriorityFeePerGas",
                  "type": "uint256"
                }
              ],
              "internalType": "struct EntryPoint.MemoryUserOp",
              "name": "mUserOp",
              "type": "tuple"
            },
            {
              "internalType": "bytes32",
              "name": "userOpHash",
              "type": "bytes32"
            },
            {
              "internalType": "uint256",
              "name": "prefund",
              "type": "uint256"
            },
            {
              "internalType": "uint256",
              "name": "contextOffset",
              "type": "uint256"
            },
            {
              "internalType": "uint256",
              "name": "preOpGas",
              "type": "uint256"
            }
          ],
          "internalType": "struct EntryPoint.UserOpInfo",
          "name": "opInfo",
          "type": "tuple"
        },
        {
          "internalType": "bytes",
          "name": "context",
          "type": "bytes"
        }
      ],
      "name": "innerHandleOp",
      "outputs": [
        {
          "internalType": "uint256",
          "name": "actualGasCost",
          "type": "uint256"
        }
      ],
      "stateMutability": "nonpayable",
      "type": "function"
    },
    {
      "inputs": [
        {
          "components": [
            {
              "internalType": "address",
              "name": "sender",
              "type": "address"
            },
            {
              "internalType": "uint256",
              "name": "nonce",
              "type": "uint256"
            },
            {
              "internalType": "bytes",
              "name": "initCode",
              "type": "bytes"
            },
            {
              "internalType": "bytes",
              "name": "callData",
              "type": "bytes"
            },
            {
              "internalType": "uint256",
              "name": "callGasLimit",
              "type": "uint256"
            },
            {
              "internalType": "uint256",
              "name": "verificationGasLimit",
              "type": "uint256"
            },
            {
              "internalType": "uint256",
              "name": "preVerificationGas",
              "type": "uint256"
            },
            {
              "internalType": "uint256",
              "name": "maxFeePerGas",
              "type": "uint256"
            },
            {
              "internalType": "uint256",
              "name": "maxPriorityFeePerGas",
              "type": "uint256"
            },
            {
              "internalType": "bytes",
              "name": "paymasterAndData",
              "type": "bytes"
            },
            {
              "internalType": "bytes",
              "name": "signature",
              "type": "bytes"
            }
          ],
          "internalType": "struct UserOperation",
          "name": "op",
          "type": "tuple"
        }
      ],
      "name": "simulateHandleOp",
      "outputs": [],
      "stateMutability": "nonpayable",
      "type": "function"
    },
    {
      "inputs": [
        {
          "components": [
            {
              "internalType": "address",
              "name": "sender",
              "type": "address"
            },
            {
              "internalType": "uint256",
              "name": "nonce",
              "type": "uint256"
            },
            {
              "internalType": "bytes",
              "name": "initCode",
              "type": "bytes"
            },
            {
              "internalType": "bytes",
              "name": "callData",
              "type": "bytes"
            },
            {
              "internalType": "uint256",
              "name": "callGasLimit",
              "type": "uint256"
            },
            {
              "internalType": "uint256",
              "name": "verificationGasLimit",
              "type": "uint256"
            },
            {
              "internalType": "uint256",
              "name": "preVerificationGas",
              "type": "uint256"
            },
            {
              "internalType": "uint256",
              "name": "maxFeePerGas",
              "type": "uint256"
            },
            {
              "internalType": "uint256",
              "name": "maxPriorityFeePerGas",
              "type": "uint256"
            },
            {
              "internalType": "bytes",
              "name": "paymasterAndData",
              "type": "bytes"
            },
            {
              "internalType": "bytes",
              "name": "signature",
              "type": "bytes"
            }
          ],
          "internalType": "struct UserOperation",
          "name": "userOp",
          "type": "tuple"
        }
      ],
      "name": "simulateValidation",
      "outputs": [],
      "stateMutability": "nonpayable",
      "type": "function"
    },
    {
      "inputs": [],
      "name": "unlockStake",
      "outputs": [],
      "stateMutability": "nonpayable",
      "type": "function"
    },
    {
      "inputs": [
        {
          "internalType": "address payable",
          "name": "withdrawAddress",
          "type": "address"
        }
      ],
      "name": "withdrawStake",
      "outputs": [],
      "stateMutability": "nonpayable",
      "type": "function"
    },
    {
      "inputs": [
        {
          "internalType": "address payable",
          "name": "withdrawAddress",
          "type": "address"
        },
        {
          "internalType": "uint256",
          "name": "withdrawAmount",
          "type": "uint256"
        }
      ],
      "name": "withdrawTo",
      "outputs": [],
      "stateMutability": "nonpayable",
      "type": "function"
    },
    {
      "stateMutability": "payable",
      "type": "receive"
    }
  ],
  "bytecode": "0x60a08060405234620000845761022c8181016001600160401b038111838210176200006e57829162005dc9833903906000f080156200006257608052604051615d3f90816200008a82396080518181816110d801528181613ff1015261430e0152f35b6040513d6000823e3d90fd5b634e487b7160e01b600052604160045260246000fd5b600080fdfe60806040526004361015610023575b361561001957600080fd5b6100216155ec565b005b60003560e01c80630396cb60146101775780631d7327561461016e5780631fad948c14610165578063205c28781461015c5780634b1d7cf5146101535780635287ce121461014a57806370a08231146101415780638f41ec5a146101385780639b249f691461012f578063a47a3fbc14610126578063a61935311461011d578063b760faf914610114578063bb9fe6bf1461010b578063c207711614610102578063c23a5cea146100f9578063ee219423146100f05763fc7e286d0361000e576100eb611aeb565b61000e565b506100eb61190a565b506100eb61176d565b506100eb61156a565b506100eb6113e6565b506100eb6113a7565b506100eb611386565b506100eb611177565b506100eb611030565b506100eb610ff5565b506100eb610f70565b506100eb610e1a565b506100eb610aef565b506100eb610950565b506100eb6106ff565b506100eb61052c565b5060207ffffffffffffffffffffffffffffffffffffffffffffffffffffffffffffffffc36011261031c5760043563ffffffff811680820361031c576103177fa5ae833d0bb1dcd632d98a8b70973e8516812898e19bf27b70071ebc8dc52c01916102356102053373ffffffffffffffffffffffffffffffffffffffff166000526000602052604060002090565b91610211811515615752565b61022e610225600185015463ffffffff1690565b63ffffffff1690565b11156157b7565b54926102f96dffffffffffffffffffffffffffff946102b761025c34888460781c16612088565b9661026888151561581c565b610273818910615881565b6102978161027f6103ec565b941684906dffffffffffffffffffffffffffff169052565b6001602084015287166dffffffffffffffffffffffffffff166040830152565b63ffffffff83166060820152600060808201526102f43373ffffffffffffffffffffffffffffffffffffffff166000526000602052604060002090565b6158e6565b6040805194855263ffffffff90911660208501523393918291820190565b0390a2005b600080fd5b507f4e487b7100000000000000000000000000000000000000000000000000000000600052604160045260246000fd5b60a0810190811067ffffffffffffffff82111761036d57604052565b610375610321565b604052565b610100810190811067ffffffffffffffff82111761036d57604052565b67ffffffffffffffff811161036d57604052565b90601f7fffffffffffffffffffffffffffffffffffffffffffffffffffffffffffffffe0910116810190811067ffffffffffffffff82111761036d57604052565b604051906103f982610351565b565b6040519060c0820182811067ffffffffffffffff82111761036d57604052565b604051906040820182811067ffffffffffffffff82111761036d57604052565b7fffffffffffffffffffffffffffffffffffffffffffffffffffffffffffffffe0601f60209267ffffffffffffffff8111610477575b01160190565b61047f610321565b610471565b9291926104908261043b565b9161049e60405193846103ab565b82948184528183011161031c578281602093846000960137010152565b73ffffffffffffffffffffffffffffffffffffffff81160361031c57565b602435906103f9826104bb565b60c435906103f9826104bb565b35906103f9826104bb565b9181601f8401121561031c5782359167ffffffffffffffff831161031c576020838186019501011161031c57565b503461031c576101c07ffffffffffffffffffffffffffffffffffffffffffffffffffffffffffffffffc36011261031c5767ffffffffffffffff60043581811161031c573660238201121561031c5761058f903690602481600401359101610484565b907fffffffffffffffffffffffffffffffffffffffffffffffffffffffffffffffdc3601610180811261031c57610100604051916105cc83610351565b1261031c576040516105dd8161037a565b6105e56104d9565b815260443560208201526064356040820152608435606082015260a435608082015261060f6104e6565b60a082015260e43560c08201526101043560e082015281526101243560208201526101443560408201526101643560608201526101843560808201526101a43591821161031c576106839261066b6106739336906004016104fe565b92909161255a565b6040519081529081906020820190565b0390f35b9060407ffffffffffffffffffffffffffffffffffffffffffffffffffffffffffffffffc83011261031c5760043567ffffffffffffffff9283821161031c578060238301121561031c57816004013593841161031c5760248460051b8301011161031c5760240191906024356106fc816104bb565b90565b503461031c5761070e36610687565b610719829392611c4d565b60005b84811061076b575060009283915b85831061073b576100218585611d8a565b90919360019061076161074f878987611d0c565b6107598886611cea565b519088612095565b019401919061072a565b61077781839593611cea565b51610783828785611d0c565b6000915a815192610794848261303c565b61079d816126b5565b602084015260809182850151946060958682015117956107e36effffffffffffffffffffffffffffff60409889850151176101008701359060e088013517171115612c61565b6107ec826130fe565b6107f88188878d6132fe565b9991905061080543600052565b839460a0809101918d73ffffffffffffffffffffffffffffffffffffffff610841855173ffffffffffffffffffffffffffffffffffffffff1690565b16610933575b50505a8703908801351061088857509260c09261087f9997959289979560019d9c9a01528601525a9003910135019082015284612936565b0192909261071c565b61092f6108aa8d925173ffffffffffffffffffffffffffffffffffffffff1690565b92519283927efa072b000000000000000000000000000000000000000000000000000000008452600484019060a09273ffffffffffffffffffffffffffffffffffffffff91835216602082015260606040820152601e60608201527f41413430206f76657220766572696669636174696f6e4761734c696d6974000060808201520190565b0390fd5b610946939d508591929750898c91614986565b9a9094388d610847565b503461031c5760407ffffffffffffffffffffffffffffffffffffffffffffffffffffffffffffffffc36011261031c5760043561098c816104bb565b6024359060009133835282602052604083206dffffffffffffffffffffffffffff81541692838311610a9157848373ffffffffffffffffffffffffffffffffffffffff829593610a3484966109fb6109e88798610a8e9c612073565b6dffffffffffffffffffffffffffff1690565b6dffffffffffffffffffffffffffff167fffffffffffffffffffffffffffffffffffff0000000000000000000000000000825416179055565b6040805173ffffffffffffffffffffffffffffffffffffffff831681526020810185905233917fd1c19fbcd4551a5edfb66d43d2e337c04837afda3482b42bdf569a8fccdae5fb91a2165af1610a88611d5a565b50615c63565b80f35b60646040517f08c379a000000000000000000000000000000000000000000000000000000000815260206004820152601960248201527f576974686472617720616d6f756e7420746f6f206c61726765000000000000006044820152fd5b503461031c57610afe36610687565b6000805b838210610deb57610b139150611c4d565b6000805b848110610c5d57505060008093815b818110610b6e5761002186867f575ff3acadd5ab348fe1855e217e0f3678f8d767d7494c9f9fefbee2e17cca4d60405180610b6681906000602083019252565b0390a1611d8a565b610bf8610b7c82848a61223b565b7f575ff3acadd5ab348fe1855e217e0f3678f8d767d7494c9f9fefbee2e17cca4d610bef610bc8610baf602085016122dd565b73ffffffffffffffffffffffffffffffffffffffff1690565b60405173ffffffffffffffffffffffffffffffffffffffff90911681529081906020820190565b0390a180612289565b906000915b808310610c1557505050610c1090612201565b610b26565b90919497610c50610c4a610c5692610c448c8b610c3d82610c378e8b8d611d0c565b92611cea565b5191612095565b90612088565b99612201565b95612201565b9190610bfd565b610c6881868861223b565b610c728180612289565b9091610c80602082016122dd565b73ffffffffffffffffffffffffffffffffffffffff169260005b87848210610da557505083610cbc575b50505050610cb790612201565b610b17565b610cd560409a97949a9996939998959289810190611e7b565b8b3b1561031c578b918a5193849283927fe3563a4f00000000000000000000000000000000000000000000000000000000845260049e8f850193610d189461241c565b03815a93600094fa9081610d8c575b50610d775786517f86a9f75000000000000000000000000000000000000000000000000000000000815273ffffffffffffffffffffffffffffffffffffffff8a16818a0190815281906020010390fd5b94975092955090935091610cb7388080610caa565b80610d99610d9f92610397565b80610fea565b38610d27565b87610ddb610dcd610dd38986610dc2610de6989e610de098611cea565b519384918c8b611d0c565b86612e4d565b50918c612936565b612201565b96612201565b610c9a565b610e0e610e1491610e06610e0085888a61223b565b80612289565b919050612088565b91612201565b90610b02565b503461031c5760207ffffffffffffffffffffffffffffffffffffffffffffffffffffffffffffffffc36011261031c5761068373ffffffffffffffffffffffffffffffffffffffff600435610e6e816104bb565b608060409283928351610e8081610351565b600093818580935282602082015282878201528260608201520152168152806020522090610f1367ffffffffffffffff6001835194610ebe86610351565b80546dffffffffffffffffffffffffffff8082168852607082901c60ff161515602089015260789190911c1685870152015463ffffffff8116606086015260201c16608084019067ffffffffffffffff169052565b5191829182919091608067ffffffffffffffff8160a08401956dffffffffffffffffffffffffffff808251168652602082015115156020870152604082015116604086015263ffffffff6060820151166060860152015116910152565b503461031c5760207ffffffffffffffffffffffffffffffffffffffffffffffffffffffffffffffffc36011261031c5773ffffffffffffffffffffffffffffffffffffffff600435610fc1816104bb565b16600052600060205260206dffffffffffffffffffffffffffff60406000205416604051908152f35b600091031261031c57565b503461031c5760007ffffffffffffffffffffffffffffffffffffffffffffffffffffffffffffffffc36011261031c57602060405160018152f35b503461031c5760207ffffffffffffffffffffffffffffffffffffffffffffffffffffffffffffffffc36011261031c5760043567ffffffffffffffff811161031c5761108260249136906004016104fe565b906110b86040519283927f570e1a3600000000000000000000000000000000000000000000000000000000845260048401612925565b0360208273ffffffffffffffffffffffffffffffffffffffff92816000857f0000000000000000000000000000000000000000000000000000000000000000165af191821561116a575b60009261113a575b50604051917f6ca7b806000000000000000000000000000000000000000000000000000000008352166004820152fd5b61115c91925060203d8111611163575b61115481836103ab565b810190612910565b903861110a565b503d61114a565b611172612036565b611102565b503461031c5760407ffffffffffffffffffffffffffffffffffffffffffffffffffffffffffffffffc36011261031c576004356111b3816104bb565b602435906111c0826104bb565b6111cb3033146124de565b600090803b156112d65773ffffffffffffffffffffffffffffffffffffffff92838116151590816112cc575b5061126d576020906004604051809581937f3ad59dbc000000000000000000000000000000000000000000000000000000008352165afa90918161124d575b50611248575060005b60005260206000fd5b61123f565b61126691925060203d81116111635761115481836103ab565b9038611236565b6040517f08c379a000000000000000000000000000000000000000000000000000000000815260206004820152601b60248201527f41413330207061796d6173746572206e6f74206465706c6f79656400000000006044820152606490fd5b90503b15386111f7565b6040517f08c379a000000000000000000000000000000000000000000000000000000000815260206004820152601960248201527f41413230206163636f756e74206e6f74206465706c6f796564000000000000006044820152606490fd5b7ffffffffffffffffffffffffffffffffffffffffffffffffffffffffffffffffc9060208282011261031c576004359167ffffffffffffffff831161031c57826101609203011261031c5760040190565b503461031c57602061139f61139a36611335565b6126b5565b604051908152f35b5060207ffffffffffffffffffffffffffffffffffffffffffffffffffffffffffffffffc36011261031c576100216004356113e1816104bb565b6156e6565b503461031c576000807ffffffffffffffffffffffffffffffffffffffffffffffffffffffffffffffffc360112611567573381528060205260408120600181019063ffffffff825416908115611509576114a46114676114cc93611457611452855460ff9060701c1690565b615a4e565b67ffffffffffffffff4216615ab3565b84547fffffffffffffffffffffffffffffffffffffffff0000000000000000ffffffff16602082901b6bffffffffffffffff000000001617909455565b7fffffffffffffffffffffffffffffffffff00ffffffffffffffffffffffffffff8154169055565b60405167ffffffffffffffff91909116815233907ffa9b3c14cc825c412c9ed81b3ba365a5b459439403f18829e572ed53a4180f0a90602090a280f35b60646040517f08c379a000000000000000000000000000000000000000000000000000000000815260206004820152600a60248201527f6e6f74207374616b6564000000000000000000000000000000000000000000006044820152fd5b80fd5b503461031c5761157936611335565b611581611bca565b61159561158e8284612cc6565b5090612c04565b90915060004381525a908460206115b56060830151986060810190611e7b565b906115ee8a60405195869485947f1d73275600000000000000000000000000000000000000000000000000000000865260048601611f80565b038185305af182918161173d575b5061172d5750806020817fdeaddead00000000000000000000000000000000000000000000000000000000933e51146116a55761165660849561164f6116456080945a90612073565b8488015190612088565b9086614c9b565b935b015192604051937fcd8ac2460000000000000000000000000000000000000000000000000000000085526004850152602484015267ffffffffffffffff8092166044840152166064820152fd5b835160a001516040517efa072b0000000000000000000000000000000000000000000000000000000081526000600482015273ffffffffffffffffffffffffffffffffffffffff909116602482015260606044820152600f60648201527f41413935206f7574206f66206761730000000000000000000000000000000000608482015260a490fd5b9050608495506080915093611658565b61175f91925060203d8111611766575b61175781836103ab565b810190611ecc565b90386115fc565b503d61174d565b503461031c5760207ffffffffffffffffffffffffffffffffffffffffffffffffffffffffffffffffc36011261031c576004356117a9816104bb565b610a8e73ffffffffffffffffffffffffffffffffffffffff6117eb3373ffffffffffffffffffffffffffffffffffffffff166000526000602052604060002090565b926118a761180e6109e886546dffffffffffffffffffffffffffff9060781c1690565b9461181a861515615acf565b61187f6001820161185767ffffffffffffffff611843835467ffffffffffffffff9060201c1690565b1661184f811515615b34565b421015615b99565b80547fffffffffffffffffffffffffffffffffffffffff000000000000000000000000169055565b7fffffff0000000000000000000000000000ffffffffffffffffffffffffffffff8154169055565b6040805173ffffffffffffffffffffffffffffffffffffffff831681526020810186905233917fb7c918e0e249f999e965cafeb6c664271b3f4317d296461500e71da39f0cbda391a2600080809581948294165af1611904611d5a565b50615bfe565b503461031c5761191936611335565b611a0f611924611bca565b61192e8184612cc6565b909192611a206119ce61196261195d60a085510173ffffffffffffffffffffffffffffffffffffffff90511690565b615597565b946119c86119a061198c61195d875173ffffffffffffffffffffffffffffffffffffffff90511690565b9a611995612747565b506040810190611e7b565b90600060148310611ae357506119bc61195d926119c29261277f565b9061278d565b60601c90565b96612c04565b9197906119fe60808601519960606040880151970151966119ed6103fb565b9b8c5260208c0152151560408b0152565b67ffffffffffffffff166060890152565b67ffffffffffffffff166080870152565b60a085015273ffffffffffffffffffffffffffffffffffffffff8116611a77575061092f916040519485947ff04297e9000000000000000000000000000000000000000000000000000000008652600486016128b6565b9061092f92611a8583615597565b611aac611a9061041b565b73ffffffffffffffffffffffffffffffffffffffff9095168552565b60208401526040519586957f356877a300000000000000000000000000000000000000000000000000000000875260048701612824565b915050615597565b503461031c5760207ffffffffffffffffffffffffffffffffffffffffffffffffffffffffffffffffc36011261031c5773ffffffffffffffffffffffffffffffffffffffff600435611b3c816104bb565b16600052600060205260a0604060002067ffffffffffffffff60018254920154604051926dffffffffffffffffffffffffffff90818116855260ff8160701c161515602086015260781c16604084015263ffffffff8116606084015260201c166080820152f35b60209067ffffffffffffffff8111611bbd575b60051b0190565b611bc5610321565b611bb6565b60405190611bd782610351565b604051608083610100830167ffffffffffffffff811184821017611c40575b60405260009283815283602082015283604082015283606082015283838201528360a08201528360c08201528360e082015281528260208201528260408201528260608201520152565b611c48610321565b611bf6565b90611c5782611ba3565b611c6460405191826103ab565b8281527fffffffffffffffffffffffffffffffffffffffffffffffffffffffffffffffe0611c928294611ba3565b019060005b828110611ca357505050565b602090611cae611bca565b82828501015201611c97565b507f4e487b7100000000000000000000000000000000000000000000000000000000600052603260045260246000fd5b6020918151811015611cff575b60051b010190565b611d07611cba565b611cf7565b9190811015611d4d575b60051b810135907ffffffffffffffffffffffffffffffffffffffffffffffffffffffffffffffea18136030182121561031c570190565b611d55611cba565b611d16565b3d15611d85573d90611d6b8261043b565b91611d7960405193846103ab565b82523d6000602084013e565b606090565b73ffffffffffffffffffffffffffffffffffffffff168015611e1d57600080809381935af1611db7611d5a565b5015611dbf57565b60646040517f08c379a000000000000000000000000000000000000000000000000000000000815260206004820152601f60248201527f41413931206661696c65642073656e6420746f2062656e6566696369617279006044820152fd5b60646040517f08c379a000000000000000000000000000000000000000000000000000000000815260206004820152601860248201527f4141393020696e76616c69642062656e656669636961727900000000000000006044820152fd5b9035907fffffffffffffffffffffffffffffffffffffffffffffffffffffffffffffffe18136030182121561031c570180359067ffffffffffffffff821161031c5760200191813603831361031c57565b9081602091031261031c575190565b601f82602094937fffffffffffffffffffffffffffffffffffffffffffffffffffffffffffffffe0938186528686013760008582860101520116010190565b60005b838110611f2d5750506000910152565b8181015183820152602001611f1d565b907fffffffffffffffffffffffffffffffffffffffffffffffffffffffffffffffe0601f602093611f7981518092818752878088019101611f1a565b0116010190565b90611f9a6080916106fc96946101c0808652850191611edb565b9360e0815173ffffffffffffffffffffffffffffffffffffffff80825116602087015260208201516040870152604082015160608701526060820151858701528482015160a087015260a08201511660c086015260c081015182860152015161010084015260208101516101208401526040810151610140840152606081015161016084015201516101808201526101a0818403910152611f3d565b506040513d6000823e3d90fd5b507f4e487b7100000000000000000000000000000000000000000000000000000000600052601160045260246000fd5b9190820391821161208057565b6103f9612043565b9190820180921161208057565b909291925a8460206120b06060830151946060810190611e7b565b906120e98660405195869485947f1d73275600000000000000000000000000000000000000000000000000000000865260048601611f80565b03816000305af1600091816121e1575b506121da575060206000803e7fdeaddead0000000000000000000000000000000000000000000000000000000060005114612152579361214c6121416106fc95965a90612073565b608083015190612088565b92614fcc565b845160a001516040517efa072b0000000000000000000000000000000000000000000000000000000081526004810185905273ffffffffffffffffffffffffffffffffffffffff909116602482015260606044820152600f60648201527f41413935206f7574206f66206761730000000000000000000000000000000000608482015260a490fd5b9450505050565b6121fa91925060203d81116117665761175781836103ab565b90386120f9565b6001907fffffffffffffffffffffffffffffffffffffffffffffffffffffffffffffffff811461222f570190565b612237612043565b0190565b919081101561227c575b60051b810135907fffffffffffffffffffffffffffffffffffffffffffffffffffffffffffffffa18136030182121561031c570190565b612284611cba565b612245565b9035907fffffffffffffffffffffffffffffffffffffffffffffffffffffffffffffffe18136030182121561031c570180359067ffffffffffffffff821161031c57602001918160051b3603831361031c57565b356106fc816104bb565b90357fffffffffffffffffffffffffffffffffffffffffffffffffffffffffffffffe18236030181121561031c57016020813591019167ffffffffffffffff821161031c57813603831361031c57565b6106fc9161236281612348846104f3565b73ffffffffffffffffffffffffffffffffffffffff169052565b602082013560208201526123fd6123ae61239361238260408601866122e7565b610160806040880152860191611edb565b6123a060608601866122e7565b908583036060870152611edb565b6080840135608084015260a084013560a084015260c084013560c084015260e084013560e084015261010080850135908401526101206123f0818601866122e7565b9185840390860152611edb565b9161240e61014091828101906122e7565b929091818503910152611edb565b949391929083604087016040885252606086019360608160051b8801019482600090815b84831061245f575050505050508460206106fc95968503910152611edb565b9091929394977fffffffffffffffffffffffffffffffffffffffffffffffffffffffffffffffa08b820301855288357ffffffffffffffffffffffffffffffffffffffffffffffffffffffffffffffea1843603018112156124da57600191846124c89201612337565b98602090810196950193019190612440565b8280fd5b156124e557565b60646040517f08c379a000000000000000000000000000000000000000000000000000000000815260206004820152601760248201527f4141393220696e7465726e616c2063616c6c206f6e6c790000000000000000006044820152fd5b6040906106fc939281528160208201520190611f3d565b909291925a9361256b3033146124de565b8151946040860151955a61138860608301518901011161268b576106fc9660009580516125b2575b505050906125ac915a9003608084015101943691610484565b9161528d565b6125e1916125dd916125d8855173ffffffffffffffffffffffffffffffffffffffff1690565b615cc8565b1590565b6125ed575b8080612593565b6125ac929194506125fc615cda565b908151612610575b505060019390916125e6565b7f1c4fada7374c0a9ee8841fc38afe82932dc0f8e69012e927f061a8bae611a20173ffffffffffffffffffffffffffffffffffffffff602087015192612681602061266f835173ffffffffffffffffffffffffffffffffffffffff1690565b92015195604051938493169683612543565b0390a33880612604565b7fdeaddead0000000000000000000000000000000000000000000000000000000060005260206000fd5b806126c4610140820182611e7b565b50037fffffffffffffffffffffffffffffffffffffffffffffffffffffffffffffffe081016040519182016040528082526020820192833751902060405160208101918252306040820152466060820152606081526080810181811067ffffffffffffffff82111761273a575b60405251902090565b612742610321565b612731565b604051906040820182811067ffffffffffffffff821117612772575b60405260006020838281520152565b61277a610321565b612763565b9060141161031c5790601490565b7fffffffffffffffffffffffffffffffffffffffff00000000000000000000000090358181169392601481106127c257505050565b60140360031b82901b16169150565b9060c060a06106fc93805184526020810151602085015260408101511515604085015267ffffffffffffffff80606083015116606086015260808201511660808501520151918160a08201520190611f3d565b92946128856103f99561287361010095999861286161284d602097610140808c528b01906127d1565b9b878a019060208091805184520151910152565b80516060890152602001516080880152565b805160a08701526020015160c0860152565b73ffffffffffffffffffffffffffffffffffffffff81511660e0850152015191019060208091805184520151910152565b6128ff6103f9946128ed6128d860a0959998969960e0865260e08601906127d1565b98602085019060208091805184520151910152565b80516060840152602001516080830152565b019060208091805184520151910152565b9081602091031261031c57516106fc816104bb565b9160206106fc938181520191611edb565b92909161294290612b6c565b90612b0057612a945761295490612b6c565b90612a0d57612961575050565b5160a001516040517efa072b000000000000000000000000000000000000000000000000000000008152600481019290925273ffffffffffffffffffffffffffffffffffffffff16602482015260606044820152602160648201527f41413332207061796d61737465722065787069726564206f72206e6f7420647560848201527f650000000000000000000000000000000000000000000000000000000000000060a482015260c490fd5b505160a001516040517efa072b000000000000000000000000000000000000000000000000000000008152600481019290925273ffffffffffffffffffffffffffffffffffffffff16602482015260606044820152601460648201527f41413334207369676e6174757265206572726f72000000000000000000000000608482015260a490fd5b6040517efa072b000000000000000000000000000000000000000000000000000000008152600481018490526000602482015260606044820152601760648201527f414132322065787069726564206f72206e6f7420647565000000000000000000608482015260a490fd5b6040517efa072b000000000000000000000000000000000000000000000000000000008152600481018590526000602482015260606044820152601460648201527f41413234207369676e6174757265206572726f72000000000000000000000000608482015260a490fd5b8015612ba057612b7b90612ba9565b92919267ffffffffffffffff8091164211918215612b9857505090565b164210919050565b50600090600090565b9060ff82161515918060081c7fffffffffffffffffffffffffffffffffffffffffffffffffffffffffffffffff8101908113600116612bf7575b67ffffffffffffffff9081169160481c1691565b612bff612043565b612be3565b612c0d90612ba9565b91939082612c1b8295612ba9565b93918891989115612c59575b509667ffffffffffffffff9182808316911610612c51575b50808316911611612c4d5750565b9150565b955038612c3f565b905038612c27565b15612c6857565b60646040517f08c379a000000000000000000000000000000000000000000000000000000000815260206004820152601860248201527f41413934206761732076616c756573206f766572666c6f7700000000000000006044820152fd5b91906000915a91805194612cda868261303c565b612ce3816126b5565b6020830152612d216effffffffffffffffffffffffffffff60808801516060890151176040890151176101008401359060e085013517171115612c61565b612d2a866130fe565b93612d3685848461364a565b9891969096612d4443600052565b60a0606093019073ffffffffffffffffffffffffffffffffffffffff612d7e835173ffffffffffffffffffffffffffffffffffffffff1690565b16612e33575b505a840360a086013510612db05750604085015260608401526080919060c0905a900391013501910152565b516040517efa072b0000000000000000000000000000000000000000000000000000000081526000600482015273ffffffffffffffffffffffffffffffffffffffff909116602482015260606044820152601e60648201527f41413430206f76657220766572696669636174696f6e4761734c696d69740000608482015260a490fd5b90925081612e44929950868661469c565b97909138612d84565b91939092936000935a8251612e62818461303c565b612e6b836126b5565b6020850152612ea96effffffffffffffffffffffffffffff60808301516060840151176040840151176101008601359060e087013517171115612c61565b612ebf612eb5826130fe565b809986868a613aca565b9991979097612ecd43600052565b60a0606094019073ffffffffffffffffffffffffffffffffffffffff612f07835173ffffffffffffffffffffffffffffffffffffffff1690565b16612fbc575b505a850360a087013510612f3a575050604085015260608401526080919060c0905a900391013501910152565b516040517efa072b000000000000000000000000000000000000000000000000000000008152600481019290925273ffffffffffffffffffffffffffffffffffffffff16602482015260606044820152601e60648201527f41413430206f76657220766572696669636174696f6e4761734c696d69740000608482015260a490fd5b909350819950828787612fce94614986565b98909238612f0d565b15612fde57565b60646040517f08c379a000000000000000000000000000000000000000000000000000000000815260206004820152601d60248201527f4141393320696e76616c6964207061796d6173746572416e64446174610000006044820152fd5b6130ae9061306661304c826122dd565b73ffffffffffffffffffffffffffffffffffffffff168452565b602081013560208401526080810135604084015260a0810135606084015260c0810135608084015260e081013560c084015261010081013560e0840152610120810190611e7b565b9081156130f3576130d86119c26119bc8460a0946130d360146103f999981015612fd7565b61277f565b73ffffffffffffffffffffffffffffffffffffffff16910152565b505060a06000910152565b60a081015173ffffffffffffffffffffffffffffffffffffffff16156131405760c060035b60ff60408401519116606084015102016080830151019101510290565b60c06001613123565b60009060033d1161315657565b905060046000803e60005160e01c90565b600060443d106106fc576040517ffffffffffffffffffffffffffffffffffffffffffffffffffffffffffffffffc91823d016004833e815167ffffffffffffffff918282113d6024840111176131e3578184019485519384116131eb573d850101602084870101116131e357506106fc929101602001906103ab565b949350505050565b50949350505050565b9060606106fc9260008152600060208201528160408201520190611f3d565b6060906106fc93928152600060208201528160408201520190611f3d565b60609073ffffffffffffffffffffffffffffffffffffffff6106fc9493600083521660208201528160408201520190611f3d565b73ffffffffffffffffffffffffffffffffffffffff6106fc949360609383521660208201528160408201520190611f3d565b6132af60609295949395608083526080830190612337565b946020820152600060408201520152565b906060929594936132ee73ffffffffffffffffffffffffffffffffffffffff92608085526080850190612337565b9660208401521660408201520152565b60009360009283945a946133c5602083519361332e855173ffffffffffffffffffffffffffffffffffffffff1690565b9561334761333f6040830183611e7b565b90848c614283565b60a086015173ffffffffffffffffffffffffffffffffffffffff169085809373ffffffffffffffffffffffffffffffffffffffff8094161598896135e2575b60600151908601516040517f0825d1fc000000000000000000000000000000000000000000000000000000008152978896879586939060048501613297565b03938a1690f18291816135c2575b506135b957506001906133e4613149565b6308c379a01461356e575b50613502575b613403575b5050505a900392565b61342d9073ffffffffffffffffffffffffffffffffffffffff166000526000602052604060002090565b916134496109e884546dffffffffffffffffffffffffffff1690565b90818311613495575082547fffffffffffffffffffffffffffffffffffff0000000000000000000000000000169190036dffffffffffffffffffffffffffff161790555b3880806133fa565b6040517efa072b00000000000000000000000000000000000000000000000000000000815260048101919091526000602482015260606044820152601760648201527f41413231206469646e2774207061792070726566756e64000000000000000000608482015260a490fd5b6040517efa072b000000000000000000000000000000000000000000000000000000008152600481018590526000602482015260606044820152601660648201527f4141323320726576657274656420286f72204f4f472900000000000000000000608482015260a490fd5b613576613167565b908161358257506133ef565b86905061092f6040519283927efa072b00000000000000000000000000000000000000000000000000000000845260048401613213565b96506133f59050565b6135db91925060203d81116117665761175781836103ab565b90386133d3565b94506136286109e86136148c73ffffffffffffffffffffffffffffffffffffffff166000526000602052604060002090565b546dffffffffffffffffffffffffffff1690565b8b81111561363f5750856060835b96915050613386565b606087918d03613636565b600160009360009283945a948151613676815173ffffffffffffffffffffffffffffffffffffffff1690565b9360409661369061368989840184611e7b565b9087613f69565b60a083015173ffffffffffffffffffffffffffffffffffffffff166136b443600052565b303b15613ac65788517fa47a3fbc00000000000000000000000000000000000000000000000000000000815273ffffffffffffffffffffffffffffffffffffffff8881166004830152821660248201528581604481305afa9081613ab3575b50613aae5781613721613149565b6308c379a014613a67575b613a01575b84928573ffffffffffffffffffffffffffffffffffffffff8093161597886139ab575b602060608197980151910151926137998d51988997889687947f0825d1fc000000000000000000000000000000000000000000000000000000008652600486016132c0565b03938a1690f182918161398b575b5061398257506001906137b8613149565b6308c379a014613939575b506138ce575b6137d6575050505a900392565b6138009073ffffffffffffffffffffffffffffffffffffffff166000526000602052604060002090565b9161381c6109e884546dffffffffffffffffffffffffffff1690565b90818311613864575082547fffffffffffffffffffffffffffffffffffff0000000000000000000000000000169190036dffffffffffffffffffffffffffff1617905561348d565b517efa072b000000000000000000000000000000000000000000000000000000008152600060048201819052602482015260606044820152601760648201527f41413231206469646e2774207061792070726566756e64000000000000000000608482015260a490fd5b83517efa072b000000000000000000000000000000000000000000000000000000008152600060048201819052602482015260606044820152601660648201527f4141323320726576657274656420286f72204f4f472900000000000000000000608482015260a490fd5b613941613167565b908161394d57506137c3565b5085517efa072b00000000000000000000000000000000000000000000000000000000815290819061092f90600483016131f4565b96506137c99050565b6139a491925060203d81116117665761175781836103ab565b90386137a7565b602095506139df6109e86136148c73ffffffffffffffffffffffffffffffffffffffff166000526000602052604060002090565b8b8111156139f65750856060835b97505050613754565b606087918d036139ed565b9a5050613a0c611d5a565b6020815103613a3357610baf81602080613a2b94518301019101612910565b998a90613731565b8a61092f89519283927efa072b00000000000000000000000000000000000000000000000000000000845260048401613231565b613a6f613167565b80613a7a575061372c565b8261092f8c519283927efa072b00000000000000000000000000000000000000000000000000000000845260048401613231565b613731565b80610d99613ac092610397565b38613713565b8480fd5b9091929360009460009384955a958151613af8815173ffffffffffffffffffffffffffffffffffffffff1690565b93604095613b13613b0b88840184611e7b565b90878c614283565b60a083015173ffffffffffffffffffffffffffffffffffffffff169173ffffffffffffffffffffffffffffffffffffffff90600182841614613e16575b8582819516159788613dbe575b60206060819798015191015192613ba28c51988997889687947f0825d1fc000000000000000000000000000000000000000000000000000000008652600486016132c0565b03938a1690f1829181613d9e575b50613d955750600190613bc1613149565b6308c379a014613d4b575b50613ce0575b613be1575b505050505a900392565b613c0b9073ffffffffffffffffffffffffffffffffffffffff166000526000602052604060002090565b92613c276109e885546dffffffffffffffffffffffffffff1690565b91828411613c7457505082547fffffffffffffffffffffffffffffffffffff0000000000000000000000000000169190036dffffffffffffffffffffffffffff1617905538808080613bd7565b517efa072b00000000000000000000000000000000000000000000000000000000815260048101919091526000602482015260606044820152601760648201527f41413231206469646e2774207061792070726566756e64000000000000000000608482015260a49150fd5b82517efa072b000000000000000000000000000000000000000000000000000000008152600481018690526000602482015260606044820152601660648201527f4141323320726576657274656420286f72204f4f472900000000000000000000608482015260a490fd5b613d53613167565b9081613d5f5750613bcc565b61092f86899250519283927efa072b00000000000000000000000000000000000000000000000000000000845260048401613213565b9750613bd29050565b613db791925060203d81116117665761175781836103ab565b9038613bb0565b60209550613df26109e86136148c73ffffffffffffffffffffffffffffffffffffffff166000526000602052604060002090565b8c80821115613e0b575050856060835b97505050613b5d565b879160609103613e02565b613e1f43600052565b303b15613f655788517fa47a3fbc00000000000000000000000000000000000000000000000000000000815273ffffffffffffffffffffffffffffffffffffffff8981166004830152851660248201528681604481305afa9081613f52575b50613e9d576001613e8d613149565b6308c379a014613f09575b613ea2575b613b50565b91509b50613eae611d5a565b6020815103613ed557610baf81602080613ecd94518301019101612910565b9b8c91613b50565b8261092f89519283927efa072b00000000000000000000000000000000000000000000000000000000845260048401613231565b613f11613167565b80613f1c5750613e98565b8c61092f87928d519384937efa072b00000000000000000000000000000000000000000000000000000000855260048501613265565b80610d99613f5f92610397565b38613e7e565b8580fd5b909180613f7557505050565b81515173ffffffffffffffffffffffffffffffffffffffff1692833b61421757606083510151604051907f570e1a3600000000000000000000000000000000000000000000000000000000825260208280613fd4878760048401612925565b0381600073ffffffffffffffffffffffffffffffffffffffff95867f00000000000000000000000000000000000000000000000000000000000000001690f191821561420a575b6000926141ea575b5080821695861561417e5716809503614112573b156140a6576119c26119bc7fd51a9c61267aa6196961883ecf5ff2da6619c37dac0fa92122513fb32c032d2d9361406d9361277f565b602083810151935160a001516040805173ffffffffffffffffffffffffffffffffffffffff9485168152939091169183019190915290a3565b6040517efa072b000000000000000000000000000000000000000000000000000000008152600060048201819052602482015260606044820152602060648201527f4141313520696e6974436f6465206d757374206372656174652073656e646572608482015260a490fd5b6040517efa072b000000000000000000000000000000000000000000000000000000008152600060048201819052602482015260606044820152602060648201527f4141313420696e6974436f6465206d7573742072657475726e2073656e646572608482015260a490fd5b6040517efa072b000000000000000000000000000000000000000000000000000000008152600060048201819052602482015260606044820152601b60648201527f4141313320696e6974436f6465206661696c6564206f72204f4f470000000000608482015260a490fd5b61420391925060203d81116111635761115481836103ab565b9038614023565b614212612036565b61401b565b6040517efa072b000000000000000000000000000000000000000000000000000000008152600060048201819052602482015260606044820152601f60648201527f414131302073656e64657220616c726561647920636f6e737472756374656400608482015260a490fd5b92909181614292575b50505050565b82515173ffffffffffffffffffffffffffffffffffffffff1693843b61453d57606084510151604051907f570e1a36000000000000000000000000000000000000000000000000000000008252602082806142f1888860048401612925565b0381600073ffffffffffffffffffffffffffffffffffffffff95867f00000000000000000000000000000000000000000000000000000000000000001690f1918215614530575b600092614510575b508082169687156144a45716809603614438573b156143cb57506119c26119bc7fd51a9c61267aa6196961883ecf5ff2da6619c37dac0fa92122513fb32c032d2d9361438b9361277f565b602083810151935160a001516040805173ffffffffffffffffffffffffffffffffffffffff9485168152939091169183019190915290a33880808061428c565b6040517efa072b00000000000000000000000000000000000000000000000000000000815260048101919091526000602482015260606044820152602060648201527f4141313520696e6974436f6465206d757374206372656174652073656e646572608482015260a490fd5b6040517efa072b000000000000000000000000000000000000000000000000000000008152600481018390526000602482015260606044820152602060648201527f4141313420696e6974436f6465206d7573742072657475726e2073656e646572608482015260a490fd5b6040517efa072b000000000000000000000000000000000000000000000000000000008152600481018590526000602482015260606044820152601b60648201527f4141313320696e6974436f6465206661696c6564206f72204f4f470000000000608482015260a490fd5b61452991925060203d81116111635761115481836103ab565b9038614340565b614538612036565b614338565b6040517efa072b00000000000000000000000000000000000000000000000000000000815260048101919091526000602482015260606044820152601f60648201527f414131302073656e64657220616c726561647920636f6e737472756374656400608482015260a490fd5b156145b157565b60646040517f08c379a000000000000000000000000000000000000000000000000000000000815260206004820152601f60248201527f4141343120746f6f206c6974746c6520766572696669636174696f6e476173006044820152fd5b919060408382031261031c57825167ffffffffffffffff811161031c5783019080601f8301121561031c578151916146468361043b565b9161465460405193846103ab565b8383526020848301011161031c5760209261467491848085019101611f1a565b92015190565b61469260409295949395606083526060830190612337565b9460208201520152565b93919360609460009460009284516146da60a08a830151926146bf8685116145aa565b015173ffffffffffffffffffffffffffffffffffffffff1690565b956147058773ffffffffffffffffffffffffffffffffffffffff166000526000602052604060002090565b6147206109e882546dffffffffffffffffffffffffffff1690565b868110614905579260208795936147848a9896946dffffffffffffffffffffffffffff6147bd9b8b9703166dffffffffffffffffffffffffffff167fffffffffffffffffffffffffffffffffffff0000000000000000000000000000825416179055565b015192604051978896879586937ff465c77e0000000000000000000000000000000000000000000000000000000085526004850161467a565b039373ffffffffffffffffffffffffffffffffffffffff8a169103f19081839184936148df575b506148d75750506001906147f6613149565b6308c379a01461488c575b506148095750565b6040517efa072b0000000000000000000000000000000000000000000000000000000081526000600482015273ffffffffffffffffffffffffffffffffffffffff91909116602482015260606044820152601660648201527f4141333320726576657274656420286f72204f4f472900000000000000000000608482015260a490fd5b614894613167565b90816148a05750614801565b83905061092f6040519283927efa072b00000000000000000000000000000000000000000000000000000000845260048401613231565b955093505050565b9092506148fe91503d8085833e6148f681836103ab565b81019061460f565b91386147e4565b6040517efa072b0000000000000000000000000000000000000000000000000000000081526000600482015273ffffffffffffffffffffffffffffffffffffffff8a16602482015260606044820152601e60648201527f41413331207061796d6173746572206465706f73697420746f6f206c6f770000608482015260a490fd5b9094929460609560009560009285516149aa60a08b830151926146bf8685116145aa565b966149d58873ffffffffffffffffffffffffffffffffffffffff166000526000602052604060002090565b6149f06109e882546dffffffffffffffffffffffffffff1690565b868110614b97579260208795936147848a9896946dffffffffffffffffffffffffffff614a549b8b9703166dffffffffffffffffffffffffffff167fffffffffffffffffffffffffffffffffffff0000000000000000000000000000825416179055565b039373ffffffffffffffffffffffffffffffffffffffff8b169103f1908183918493614b79575b50614b70575050600190614a8d613149565b6308c379a014614b25575b50614aa1575050565b6040517efa072b000000000000000000000000000000000000000000000000000000008152600481019190915273ffffffffffffffffffffffffffffffffffffffff91909116602482015260606044820152601660648201527f4141333320726576657274656420286f72204f4f472900000000000000000000608482015260a490fd5b614b2d613167565b9081614b395750614a98565b61092f9250506040519384937efa072b00000000000000000000000000000000000000000000000000000000855260048501613265565b96509450505050565b909250614b9091503d8085833e6148f681836103ab565b9138614a7b565b6040517efa072b000000000000000000000000000000000000000000000000000000008152600481018a905273ffffffffffffffffffffffffffffffffffffffff8b16602482015260606044820152601e60648201527f41413331207061796d6173746572206465706f73697420746f6f206c6f770000608482015260a490fd5b60031115614c2257565b7f4e487b7100000000000000000000000000000000000000000000000000000000600052602160045260246000fd5b929190614c6f60409160028652606060208701526060860190611f3d565b930152565b939291906003811015614c2257604091614c6f918652606060208701526060860190611f3d565b909291925a916000918151614caf8161556f565b9260a0820195614cd3875173ffffffffffffffffffffffffffffffffffffffff1690565b9873ffffffffffffffffffffffffffffffffffffffff94858b1680614e53575050835173ffffffffffffffffffffffffffffffffffffffff16915b5a9003019485029860408301908a825110614dd057507f49628fd1471006c1482da88028e9ce4dbb080b815c9b0344d39e5a8e6ec1419f949392614d5b614dcb938c6020945103906155f5565b015194896020614d9d614d82865173ffffffffffffffffffffffffffffffffffffffff1690565b9a5173ffffffffffffffffffffffffffffffffffffffff1690565b9401519785604051968796169a16988590949392606092608083019683521515602083015260408201520152565b0390a4565b6040517efa072b0000000000000000000000000000000000000000000000000000000081526000600482015273ffffffffffffffffffffffffffffffffffffffff91909116602482015260606044820152601f60648201527f4135312070726566756e642062656c6f772061637475616c476173436f737400608482015260a490fd5b8b93918051614e64575b5050614d0e565b606087015160009a509091803b15614fc857918a918a83614eb7956040518097819682957fa9a234090000000000000000000000000000000000000000000000000000000084528c029060048401614c51565b0393f19081614fb5575b50614fb0576001614ed0613149565b6308c379a014614f68575b614ee7575b3880614e5d565b6040517efa072b0000000000000000000000000000000000000000000000000000000081526000600482015273ffffffffffffffffffffffffffffffffffffffff8c16602482015260606044820152601160648201527f41353020706f73744f7020726576657274000000000000000000000000000000608482015260a490fd5b614f70613167565b80614f7b5750614edb565b8c61092f6040519283927efa072b00000000000000000000000000000000000000000000000000000000845260048401613231565b614ee0565b80610d99614fc292610397565b38614ec1565b8a80fd5b919392935a90600092805190614fe18261556f565b9360a0830196615005885173ffffffffffffffffffffffffffffffffffffffff1690565b9973ffffffffffffffffffffffffffffffffffffffff95868c1680615112575050845173ffffffffffffffffffffffffffffffffffffffff16925b5a9003019586029960408401918b83511061508e5750507f49628fd1471006c1482da88028e9ce4dbb080b815c9b0344d39e5a8e6ec1419f949392614d5b614dcb938c6020945103906155f5565b6040517efa072b000000000000000000000000000000000000000000000000000000008152600481019190915273ffffffffffffffffffffffffffffffffffffffff91909116602482015260606044820152601f60648201527f4135312070726566756e642062656c6f772061637475616c476173436f737400608482015260a490fd5b8c94918051615123575b5050615040565b606088015160009b509091803b1561528957918b918b83615176956040518097819682957fa9a234090000000000000000000000000000000000000000000000000000000084528c029060048401614c51565b0393f19081615276575b5061527157600161518f613149565b6308c379a014615227575b6151a6575b388061511c565b6040517efa072b0000000000000000000000000000000000000000000000000000000081526004810184905273ffffffffffffffffffffffffffffffffffffffff8d16602482015260606044820152601160648201527f41353020706f73744f7020726576657274000000000000000000000000000000608482015260a490fd5b61522f613167565b8061523a575061519a565b8461092f8f926040519384937efa072b00000000000000000000000000000000000000000000000000000000855260048501613265565b61519f565b80610d9961528392610397565b38615180565b8b80fd5b909392935a92815161529e8161556f565b9260a08201956152c2875173ffffffffffffffffffffffffffffffffffffffff1690565b9873ffffffffffffffffffffffffffffffffffffffff94858b1690816153a7575050835173ffffffffffffffffffffffffffffffffffffffff16915b5a9003019485029860408301908a825110614dd057507f49628fd1471006c1482da88028e9ce4dbb080b815c9b0344d39e5a8e6ec1419f94939261534b614dcb938c6020945103906155f5565b61535488614c18565b01519489602061537b614d82865173ffffffffffffffffffffffffffffffffffffffff1690565b940151604080519182529815602082015297880152606087015290821695909116939081906080820190565b8b939181516153b8575b50506152fe565b8884026153c48b614c18565b60028b1461544f576060880151823b1561031c5761541793600080948e604051978896879586937fa9a2340900000000000000000000000000000000000000000000000000000000855260048501614c74565b0393f18015615442575b61542f575b505b38806153b1565b80610d9961543c92610397565b38615426565b61544a612036565b615421565b6060880151823b1561031c5761549a93600080948e604051978896879586937fa9a2340900000000000000000000000000000000000000000000000000000000855260048501614c74565b0393f1908161555c575b506155575760016154b3613149565b6308c379a014615544575b15615428576040517efa072b0000000000000000000000000000000000000000000000000000000081526000600482015273ffffffffffffffffffffffffffffffffffffffff8c16602482015260606044820152601160648201527f41353020706f73744f7020726576657274000000000000000000000000000000608482015260a490fd5b61554c613167565b80614f7b57506154be565b615428565b80610d9961556992610397565b386154a4565b60e060c08201519101518082146155935748018082101561558e575090565b905090565b5090565b9073ffffffffffffffffffffffffffffffffffffffff6155b5612747565b9216600052600060205263ffffffff600160406000206dffffffffffffffffffffffffffff815460781c1685520154166020830152565b6103f9336156e6565b73ffffffffffffffffffffffffffffffffffffffff16600052600060205260406000206dffffffffffffffffffffffffffff808254169283018093116156d9575b80831161567b576103f992166dffffffffffffffffffffffffffff167fffffffffffffffffffffffffffffffffffff0000000000000000000000000000825416179055565b60646040517f08c379a000000000000000000000000000000000000000000000000000000000815260206004820152601060248201527f6465706f736974206f766572666c6f77000000000000000000000000000000006044820152fd5b6156e1612043565b615636565b73ffffffffffffffffffffffffffffffffffffffff9061570634826155f5565b168060005260006020527f2da466a7b24304f47e87fa2e1e5a81b9831ce54fec19055ce277ca2f39ba42c460206dffffffffffffffffffffffffffff60406000205416604051908152a2565b1561575957565b60646040517f08c379a000000000000000000000000000000000000000000000000000000000815260206004820152601a60248201527f6d757374207370656369667920756e7374616b652064656c61790000000000006044820152fd5b156157be57565b60646040517f08c379a000000000000000000000000000000000000000000000000000000000815260206004820152601c60248201527f63616e6e6f7420646563726561736520756e7374616b652074696d65000000006044820152fd5b1561582357565b60646040517f08c379a000000000000000000000000000000000000000000000000000000000815260206004820152601260248201527f6e6f207374616b652073706563696669656400000000000000000000000000006044820152fd5b1561588857565b60646040517f08c379a000000000000000000000000000000000000000000000000000000000815260206004820152600e60248201527f7374616b65206f766572666c6f770000000000000000000000000000000000006044820152fd5b9067ffffffffffffffff608060016103f9946159486dffffffffffffffffffffffffffff86511682906dffffffffffffffffffffffffffff167fffffffffffffffffffffffffffffffffffff0000000000000000000000000000825416179055565b602085015115156eff000000000000000000000000000082549160701b16807fffffffffffffffffffffffffffffffffff00ffffffffffffffffffffffffffff83161783557fffffff000000000000000000000000000000ffffffffffffffffffffffffffff7cffffffffffffffffffffffffffff000000000000000000000000000000604089015160781b16921617178155019263ffffffff6060820151167fffffffffffffffffffffffffffffffffffffffffffffffffffffffff000000008554161784550151167fffffffffffffffffffffffffffffffffffffffff0000000000000000ffffffff6bffffffffffffffff0000000083549260201b169116179055565b15615a5557565b60646040517f08c379a000000000000000000000000000000000000000000000000000000000815260206004820152601160248201527f616c726561647920756e7374616b696e670000000000000000000000000000006044820152fd5b91909167ffffffffffffffff8080941691160191821161208057565b15615ad657565b60646040517f08c379a000000000000000000000000000000000000000000000000000000000815260206004820152601460248201527f4e6f207374616b6520746f2077697468647261770000000000000000000000006044820152fd5b15615b3b57565b60646040517f08c379a000000000000000000000000000000000000000000000000000000000815260206004820152601d60248201527f6d7573742063616c6c20756e6c6f636b5374616b6528292066697273740000006044820152fd5b15615ba057565b60646040517f08c379a000000000000000000000000000000000000000000000000000000000815260206004820152601b60248201527f5374616b65207769746864726177616c206973206e6f742064756500000000006044820152fd5b15615c0557565b60646040517f08c379a000000000000000000000000000000000000000000000000000000000815260206004820152601860248201527f6661696c656420746f207769746864726177207374616b6500000000000000006044820152fd5b15615c6a57565b60646040517f08c379a000000000000000000000000000000000000000000000000000000000815260206004820152601260248201527f6661696c656420746f20776974686472617700000000000000000000000000006044820152fd5b9060009283809360208451940192f190565b3d610800808211615d01575b50604051906020818301016040528082526000602083013e90565b905038615ce656fea2646970667358221220239daceaad33fc9429803d896c1a5caa3755e6dea1746608c8eac8fa06dd9e9364736f6c634300081100336080806040523461001657610210908161001c8239f35b600080fdfe6080604052600436101561001257600080fd5b6000803560e01c63570e1a361461002857600080fd5b346100c95760207ffffffffffffffffffffffffffffffffffffffffffffffffffffffffffffffffc3601126100c95760043567ffffffffffffffff918282116100c957366023830112156100c95781600401359283116100c95736602484840101116100c9576100c561009e84602485016100fc565b60405173ffffffffffffffffffffffffffffffffffffffff90911681529081906020820190565b0390f35b80fd5b507f4e487b7100000000000000000000000000000000000000000000000000000000600052604160045260246000fd5b90806014116101bb5767ffffffffffffffff917fffffffffffffffffffffffffffffffffffffffffffffffffffffffffffffffec82018381116101cd575b604051937fffffffffffffffffffffffffffffffffffffffffffffffffffffffffffffffe0603f81600b8701160116850190858210908211176101c0575b604052808452602084019036848401116101bb576020946000600c819682946014880187378301015251923560601c5af19060005191156101b557565b60009150565b600080fd5b6101c86100cc565b610178565b6101d56100cc565b61013a56fea26469706673582212202f6aa68977bad9c275e51acad9826417c06681f8af8a6c6afc77efd76d949f2964736f6c63430008110033",
  "linkReferences": {},
  "deployedLinkReferences": {}
}